{"abi":[{"type":"constructor","inputs":[{"name":"_initial","type":"uint256","internalType":"uint256"}],"stateMutability":"nonpayable"},{"type":"function","name":"decrement","inputs":[],"outputs":[],"stateMutability":"nonpayable"},{"type":"function","name":"getCount","inputs":[],"outputs":[{"name":"","type":"uint256","internalType":"uint256"}],"stateMutability":"view"},{"type":"function","name":"increment","inputs":[],"outputs":[],"stateMutability":"nonpayable"},{"type":"function","name":"setCount","inputs":[{"name":"_count","type":"uint256","internalType":"uint256"}],"outputs":[],"stateMutability":"nonpayable"},{"type":"event","name":"Decremented","inputs":[{"name":"newCount","type":"uint256","indexed":false,"internalType":"uint256"}],"anonymous":false},{"type":"event","name":"Incremented","inputs":[{"name":"newCount","type":"uint256","indexed":false,"internalType":"uint256"}],"anonymous":false}],"bytecode":{"object":"0x6080604052348015600e575f5ffd5b506040516104013803806104018339818101604052810190602e9190606b565b805f81905550506091565b5f5ffd5b5f819050919050565b604d81603d565b81146056575f5ffd5b50565b5f815190506065816046565b92915050565b5f60208284031215607d57607c6039565b5b5f6088848285016059565b91505092915050565b6103638061009e5f395ff3fe608060405234801561000f575f5ffd5b506004361061004a575f3560e01c80632baeceb71461004e578063a87d942c14610058578063d09de08a14610076578063d14e62b814610080575b5f5ffd5b61005661009c565b005b61006061012f565b60405161006d91906101a8565b60405180910390f35b61007e610137565b005b61009a600480360381019061009591906101ef565b610187565b005b5f5f54116100df576040517f08c379a00000000000000000000000000000000000000000000000000000000081526004016100d690610274565b60405180910390fd5b5f5f8154809291906100f0906102bf565b91905055507fc9118d86370931e39644ee137c931308fa3774f6c90ab057f0c3febf427ef94a5f5460405161012591906101a8565b60405180910390a1565b5f5f54905090565b5f5f815480929190610148906102e6565b91905055507f20d8a6f5a693f9d1d627a598e8820f7a55ee74c183aa8f1a30e8d4e8dd9a8d845f5460405161017d91906101a8565b60405180910390a1565b805f8190555050565b5f819050919050565b6101a281610190565b82525050565b5f6020820190506101bb5f830184610199565b92915050565b5f5ffd5b6101ce81610190565b81146101d8575f5ffd5b50565b5f813590506101e9816101c5565b92915050565b5f60208284031215610204576102036101c1565b5b5f610211848285016101db565b91505092915050565b5f82825260208201905092915050565b7f436f756e7420697320616c7265616479207a65726f00000000000000000000005f82015250565b5f61025e60158361021a565b91506102698261022a565b602082019050919050565b5f6020820190508181035f83015261028b81610252565b9050919050565b7f4e487b71000000000000000000000000000000000000000000000000000000005f52601160045260245ffd5b5f6102c982610190565b91505f82036102db576102da610292565b5b600182039050919050565b5f6102f082610190565b91507fffffffffffffffffffffffffffffffffffffffffffffffffffffffffffffffff820361032257610321610292565b5b60018201905091905056fea26469706673582212202cbdb825ac2dbf4b3f34a1ee6f978f5187fd52088ba8eaaf973a4685e9963b2c64736f6c634300081f0033","linkReferences":{}},"methodIdentifiers":{"decrement()":"2baeceb7","getCount()":"a87d942c","increment()":"d09de08a","setCount(uint256)":"d14e62b8"},"id":0}